:100000000C9461000C9473000C9473000C947300B6
:100010000C9473000C9473000C9473000C94730094
:100020000C9473000C9473000C9473000C94730084
:100030000C9473000C9473000C9473000C94730074
:100040000C94F5000C9473000C9473000C947300E2
:100050000C9473000C9473000C9473000C94730054
:100060000C9473000C947300000000002300260021
:10007000290000000008000201000003040700003E
:1000800000000000000000000000250028002B00F8
:1000900000000000240027002A00040404040404D3
:1000A0000404020202020202030303030303010227
:1000B00004081020408001020408102001020408F6
:1000C000102011241FBECFEFD8E0DEBFCDBF21E04E
:1000D000A0E0B1E001C01D92A930B207E1F70E9493
:1000E0003F010C942F020C940000833081F028F41F
:1000F000813099F08230A9F008958730A9F08830D6
:10010000C9F08430B1F4809180008F7D03C080916C
:1001100080008F7780938000089584B58F7784BDA9
:10012000089584B58F7DFBCF8091B0008F77809349
:10013000B00008958091B0008F7DF9CFCF93DF9309
:10014000282F30E0F901EE58FF4F8491F901E25574
:10015000FF4FD491F901E656FF4FC491CC23A1F093
:1001600081110E947500EC2FF0E0EE0FFF1FE8599F
:10017000FF4FA591B491EC91ED2381E090E009F45B
:1001800080E0DF91CF91089580E090E0FACF1F9357
:10019000CF93DF93282F30E0F901EE58FF4F849181
:1001A000F901E255FF4FD491F901E656FF4FC49192
:1001B000CC23A9F0162F81110E947500EC2FF0E0DE
:1001C000EE0FFF1FEA57FF4FA591B4918FB7F89438
:1001D000EC91111108C0D095DE23DC938FBFDF9125
:1001E000CF911F910895DE2BF8CF1F920F920FB67B
:1001F0000F9211242F933F938F939F93AF93BF93AD
:100200008091050190910601A0910701B09108012C
:100210003091040123E0230F2D3758F50196A11DDD
:10022000B11D209304018093050190930601A093D2
:100230000701B09308018091000190910101A09104
:100240000201B09103010196A11DB11D809300012F
:1002500090930101A0930201B0930301BF91AF916C
:100260009F918F913F912F910F900FBE0F901F90F4
:10027000189526E8230F0296A11DB11DD2CF7894C0
:1002800084B5826084BD84B5816084BD85B582609B
:1002900085BD85B5816085BD80916E00816080934C
:1002A0006E001092810080918100826080938100B5
:1002B00080918100816080938100809180008160C5
:1002C000809380008091B10084608093B100809120
:1002D000B00081608093B00080917A008460809348
:1002E0007A0080917A00826080937A0080917A000F
:1002F000816080937A0080917A00806880937A0090
:100300001092C10050E040E0FA01E255FF4F249105
:10031000FA01E656FF4F84918823C1F090E0880FE0
:10032000991FFC01E057FF4FC591D491FC01EA579A
:10033000FF4FA591B4919FB7F8948881E22FE09583
:100340008E2388838C91E823EC939FBF4F5F5F4F90
:100350004C305105C9F62CE030E0F901E255FF4F71
:100360004491F901E656FF4F8491882399F090E07B
:10037000880F991FFC01E057FF4FA591B491FC0134
:10038000EA57FF4F859194918FB7F894EC91E42B45
:10039000EC938FBF2F5F3F4F23313105F1F680E0A3
:1003A000E82E80E0F82ED0E0C0E01CE01C0F06E054
:1003B0000C0F802F0E949E00892B41F0DD2331F02D
:1003C0008C2F0E949E0061E0892BC1F4802F0E9437
:1003D0009E00892B69F48C2F0E949E00892BA9F422
:1003E000DD23A9F0802F0E949E00892B31F40FC0DD
:1003F0008C2F0E949E00892B71F360E0812F0E9458
:10040000C700C53011F1D1E015C0D111F6CF802F52
:100410000E949E00892B39F48C2F0E949E00892B0C
:1004200011F460E0D11161E0812F0E94C700C53056
:1004300089F0D0E0CF5FC63009F0B7CFE114F10406
:1004400009F4B1CF0E940000AECF61E082E10E94CA
:10045000C700D9CF60E082E10E94C700EACFF894DC
:02046000FFCFCC
:00000001FF
